:020000040800F2
:10000000FF4F0020C90300080D0400080D0400087C
:100010000D0400080D0400080D0400080000000095
:100020000000000000000000000000000D040008B7
:100030000D040008000000000D0400080D04000875
:100040000D0400080D0400080D0400080D0400084C
:100050000D0400080D0400080D0400080D0400083C
:100060000D0400080D0400080D0400080D0400082C
:100070000D0400080D0400080D0400080D0400081C
:100080000D0400080D0400080D0400080D0400080C
:100090000D0400080D0400080D0400080D040008FC
:1000A0000D0400080D0400080D0400080D040008EC
:1000B0000D0400080D0400080D0400080D040008DC
:1000C0000D0400080D0400080D0400080D040008CC
:1000D0000D0400080D0400080D0400080D040008BC
:1000E0000D0400080D0400080D04000800000000C5
:1000F0000000000000000000000000000000000000
:0C01000000000000000000005FF808F1A3
:10010C00104B9A6942F010029A610F4A516821F41F
:10011C0040015160516841F4801151609A6942F07C
:10012C0004029A61A3F584331A6822F088421A609B
:10013C001A6842F008421A60DA6842F0C002DA60CB
:10014C00704700BF0010024000100140124AD369F2
:10015C0043F00203D361114B1A8B42F4704242F00C
:10016C00F0021A831A8B42F4807242F001021A8355
:10017C001A8C22F022021204120C1A841A8942F0F0
:10018C0003021A8128229A8500229A841A8842F046
:10019C0001021A80704700BF0010024000040040AA
:1001AC00EFF309800046704780F309887047EFF33E
:1001BC0008800046704780F308887047EFF3128080
:1001CC00704780F311887047EFF31080704780F30D
:1001DC0010887047EFF31380704780F313887047D3
:1001EC00EFF31480704780F31488704700BA70479F
:1001FC0040BA7047C0BA704790FAA0F07047D0E888
:10020C004F0FC0B27047D0E85F0F80B2704750E814
:10021C00000F7047C1E8430F18467047C1E8530FF1
:10022C001846704741E8000070470000374B82B019
:10023C001A6842F001021A605968354A0A405A603D
:10024C001A6822F0847222F480321A601A6822F43E
:10025C0080221A605A6822F4FE025A604FF41F0280
:10026C009A600022009201921A6842F480321A605D
:10027C001A6802F400320192009A01320092019A3B
:10028C001AB9009AB2F5A06FF2D11A6812F40032C2
:10029C0018BF01220192019A012A30D11D4A11681E
:1002AC0041F010011160116821F003011160116817
:1002BC0041F0020111605A685A605A685A605A68D3
:1002CC0042F480625A605A6822F47C125A605A686E
:1002DC0042F4E8125A601A6842F080721A601A6886
:1002EC009201FCD55A6822F003025A605A6842F017
:1002FC0002025A605A6802F00C02082AFAD14FF036
:10030C000062054B9A6002B0704700BF00100240BB
:10031C000000FFF80020024000ED00E0114A124BF3
:10032C00516801F00C01042901D008290AD00F49A9
:10033C0019605268C2F303121A4411791A68CA4040
:10034C001A60704751685068C1F38341C00301F1D2
:10035C00020102D406484143EAE750688003F9D40D
:10036C000248F8E7001002400000002000127A005A
:10037C0000093D00100400080000002014000020BB
:10038C00140000201400002008B5FFF7B9FEFFF799
:10039C00DDFE084B08491A6942F000521A618A8C3A
:1003AC00132A1A698CBF42F0005242F400521A61AF
:1003BC00F5E700BF0010014000040040002103E0FD
:1003CC000A4B5B584350043109480A4B42189A4275
:1003DC00F6D3094A02E0002342F8043B074B9A4249
:1003EC00F9D3FFF723FFFFF7CFFF70471004000886
:1003FC000000002014000020140000201400002035
:04040C00FEE7000007
:1004100000A24A04000000000000000001020304E2
:0404200006070809BA
:04000005080003C923
:00000001FF
